{
  "contractName": "ProductAuthentication",
  "abi": [
    {
      "inputs": [],
      "stateMutability": "nonpayable",
      "type": "constructor"
    },
    {
      "anonymous": false,
      "inputs": [
        {
          "indexed": false,
          "internalType": "uint256",
          "name": "productId",
          "type": "uint256"
        },
        {
          "indexed": false,
          "internalType": "address",
          "name": "manufacturer",
          "type": "address"
        },
        {
          "indexed": false,
          "internalType": "string",
          "name": "name",
          "type": "string"
        },
        {
          "indexed": false,
          "internalType": "string",
          "name": "url",
          "type": "string"
        },
        {
          "indexed": false,
          "internalType": "uint256",
          "name": "price",
          "type": "uint256"
        }
      ],
      "name": "ProductRegistered",
      "type": "event"
    },
    {
      "anonymous": false,
      "inputs": [
        {
          "indexed": false,
          "internalType": "uint256",
          "name": "productId",
          "type": "uint256"
        },
        {
          "indexed": false,
          "internalType": "bool",
          "name": "isAuthentic",
          "type": "bool"
        }
      ],
      "name": "ProductVerified",
      "type": "event"
    },
    {
      "inputs": [],
      "name": "owner",
      "outputs": [
        {
          "internalType": "address",
          "name": "",
          "type": "address"
        }
      ],
      "stateMutability": "view",
      "type": "function"
    },
    {
      "inputs": [
        {
          "internalType": "uint256",
          "name": "productId",
          "type": "uint256"
        },
        {
          "internalType": "string",
          "name": "name",
          "type": "string"
        },
        {
          "internalType": "string",
          "name": "url",
          "type": "string"
        },
        {
          "internalType": "uint256",
          "name": "price",
          "type": "uint256"
        },
        {
          "internalType": "string",
          "name": "qrCode",
          "type": "string"
        }
      ],
      "name": "registerProduct",
      "outputs": [],
      "stateMutability": "nonpayable",
      "type": "function"
    },
    {
      "inputs": [
        {
          "internalType": "uint256",
          "name": "productId",
          "type": "uint256"
        },
        {
          "internalType": "string",
          "name": "scannedQrCode",
          "type": "string"
        }
      ],
      "name": "verifyProduct",
      "outputs": [
        {
          "internalType": "bool",
          "name": "",
          "type": "bool"
        },
        {
          "internalType": "string",
          "name": "",
          "type": "string"
        },
        {
          "internalType": "string",
          "name": "",
          "type": "string"
        },
        {
          "internalType": "uint256",
          "name": "",
          "type": "uint256"
        }
      ],
      "stateMutability": "view",
      "type": "function"
    },
    {
      "inputs": [
        {
          "internalType": "uint256",
          "name": "productId",
          "type": "uint256"
        }
      ],
      "name": "getProduct",
      "outputs": [
        {
          "internalType": "uint256",
          "name": "",
          "type": "uint256"
        },
        {
          "internalType": "address",
          "name": "",
          "type": "address"
        },
        {
          "internalType": "string",
          "name": "",
          "type": "string"
        },
        {
          "internalType": "string",
          "name": "",
          "type": "string"
        },
        {
          "internalType": "uint256",
          "name": "",
          "type": "uint256"
        }
      ],
      "stateMutability": "view",
      "type": "function"
    }
  ],
  "bytecode": "0x608060405234801561000f575f80fd5b50335f806101000a81548173ffffffffffffffffffffffffffffffffffffffff021916908373ffffffffffffffffffffffffffffffffffffffff16021790555061114a8061005c5f395ff3fe608060405234801561000f575f80fd5b506004361061004a575f3560e01c80633267721c1461004e5780638da5cb5b14610081578063b9db15b41461009f578063df28ff46146100d3575b5f80fd5b6100686004803603810190610063919061099a565b6100ef565b6040516100789493929190610a97565b60405180910390f35b610089610354565b6040516100969190610b27565b60405180910390f35b6100b960048036038101906100b49190610b40565b610377565b6040516100ca959493929190610b6b565b60405180910390f35b6100ed60048036038101906100e89190610bca565b61065a565b005b5f6060805f60015f8781526020019081526020015f206006015f9054906101000a900460ff16610154576040517f08c379a000000000000000000000000000000000000000000000000000000000815260040161014b90610cdf565b60405180910390fd5b5f856040516020016101669190610d37565b6040516020818303038152906040528051906020012060015f8981526020019081526020015f206005016040516020016101a09190610e3c565b60405160208183030381529060405280519060200120149050801561031f576001805f8981526020019081526020015f2060020160015f8a81526020019081526020015f2060030160015f8b81526020019081526020015f206004015482805461020990610d7a565b80601f016020809104026020016040519081016040528092919081815260200182805461023590610d7a565b80156102805780601f1061025757610100808354040283529160200191610280565b820191905f5260205f20905b81548152906001019060200180831161026357829003601f168201915b5050505050925081805461029390610d7a565b80601f01602080910402602001604051908101604052809291908181526020018280546102bf90610d7a565b801561030a5780601f106102e15761010080835404028352916020019161030a565b820191905f5260205f20905b8154815290600101906020018083116102ed57829003601f168201915b5050505050915094509450945094505061034b565b5f8060405180602001604052805f8152509060405180602001604052805f815250909450945094509450505b92959194509250565b5f8054906101000a900473ffffffffffffffffffffffffffffffffffffffff1681565b5f806060805f60015f8781526020019081526020015f206006015f9054906101000a900460ff166103dd576040517f08c379a00000000000000000000000000000000000000000000000000000000081526004016103d490610cdf565b60405180910390fd5b5f60015f8881526020019081526020015f206040518060e00160405290815f8201548152602001600182015f9054906101000a900473ffffffffffffffffffffffffffffffffffffffff1673ffffffffffffffffffffffffffffffffffffffff1673ffffffffffffffffffffffffffffffffffffffff16815260200160028201805461046890610d7a565b80601f016020809104026020016040519081016040528092919081815260200182805461049490610d7a565b80156104df5780601f106104b6576101008083540402835291602001916104df565b820191905f5260205f20905b8154815290600101906020018083116104c257829003601f168201915b505050505081526020016003820180546104f890610d7a565b80601f016020809104026020016040519081016040528092919081815260200182805461052490610d7a565b801561056f5780601f106105465761010080835404028352916020019161056f565b820191905f5260205f20905b81548152906001019060200180831161055257829003601f168201915b505050505081526020016004820154815260200160058201805461059290610d7a565b80601f01602080910402602001604051908101604052809291908181526020018280546105be90610d7a565b80156106095780601f106105e057610100808354040283529160200191610609565b820191905f5260205f20905b8154815290600101906020018083116105ec57829003601f168201915b50505050508152602001600682015f9054906101000a900460ff1615151515815250509050805f01518160200151826040015183606001518460800151955095509550955095505091939590929450565b60015f8681526020019081526020015f206006015f9054906101000a900460ff16156106bb576040517f08c379a00000000000000000000000000000000000000000000000000000000081526004016106b290610e9c565b60405180910390fd5b6040518060e001604052808681526020013373ffffffffffffffffffffffffffffffffffffffff1681526020018581526020018481526020018381526020018281526020016001151581525060015f8781526020019081526020015f205f820151815f01556020820151816001015f6101000a81548173ffffffffffffffffffffffffffffffffffffffff021916908373ffffffffffffffffffffffffffffffffffffffff160217905550604082015181600201908161077b9190611045565b5060608201518160030190816107919190611045565b506080820151816004015560a08201518160050190816107b19190611045565b5060c0820151816006015f6101000a81548160ff0219169083151502179055509050507f28c8966a5b6b16c4dd03ae53ea7c406eed3dead5b68f6a1b75337631b1f65a3e853386868660405161080b959493929190610b6b565b60405180910390a15050505050565b5f604051905090565b5f80fd5b5f80fd5b5f819050919050565b61083d8161082b565b8114610847575f80fd5b50565b5f8135905061085881610834565b92915050565b5f80fd5b5f80fd5b5f601f19601f8301169050919050565b7f4e487b71000000000000000000000000000000000000000000000000000000005f52604160045260245ffd5b6108ac82610866565b810181811067ffffffffffffffff821117156108cb576108ca610876565b5b80604052505050565b5f6108dd61081a565b90506108e982826108a3565b919050565b5f67ffffffffffffffff82111561090857610907610876565b5b61091182610866565b9050602081019050919050565b828183375f83830152505050565b5f61093e610939846108ee565b6108d4565b90508281526020810184848401111561095a57610959610862565b5b61096584828561091e565b509392505050565b5f82601f8301126109815761098061085e565b5b813561099184826020860161092c565b91505092915050565b5f80604083850312156109b0576109af610823565b5b5f6109bd8582860161084a565b925050602083013567ffffffffffffffff8111156109de576109dd610827565b5b6109ea8582860161096d565b9150509250929050565b5f8115159050919050565b610a08816109f4565b82525050565b5f81519050919050565b5f82825260208201905092915050565b5f5b83811015610a45578082015181840152602081019050610a2a565b5f8484015250505050565b5f610a5a82610a0e565b610a648185610a18565b9350610a74818560208601610a28565b610a7d81610866565b840191505092915050565b610a918161082b565b82525050565b5f608082019050610aaa5f8301876109ff565b8181036020830152610abc8186610a50565b90508181036040830152610ad08185610a50565b9050610adf6060830184610a88565b95945050505050565b5f73ffffffffffffffffffffffffffffffffffffffff82169050919050565b5f610b1182610ae8565b9050919050565b610b2181610b07565b82525050565b5f602082019050610b3a5f830184610b18565b92915050565b5f60208284031215610b5557610b54610823565b5b5f610b628482850161084a565b91505092915050565b5f60a082019050610b7e5f830188610a88565b610b8b6020830187610b18565b8181036040830152610b9d8186610a50565b90508181036060830152610bb18185610a50565b9050610bc06080830184610a88565b9695505050505050565b5f805f805f60a08688031215610be357610be2610823565b5b5f610bf08882890161084a565b955050602086013567ffffffffffffffff811115610c1157610c10610827565b5b610c1d8882890161096d565b945050604086013567ffffffffffffffff811115610c3e57610c3d610827565b5b610c4a8882890161096d565b9350506060610c5b8882890161084a565b925050608086013567ffffffffffffffff811115610c7c57610c7b610827565b5b610c888882890161096d565b9150509295509295909350565b7f50726f64756374206e6f742072656769737465726564000000000000000000005f82015250565b5f610cc9601683610a18565b9150610cd482610c95565b602082019050919050565b5f6020820190508181035f830152610cf681610cbd565b9050919050565b5f81905092915050565b5f610d1182610a0e565b610d1b8185610cfd565b9350610d2b818560208601610a28565b80840191505092915050565b5f610d428284610d07565b915081905092915050565b7f4e487b71000000000000000000000000000000000000000000000000000000005f52602260045260245ffd5b5f6002820490506001821680610d9157607f821691505b602082108103610da457610da3610d4d565b5b50919050565b5f819050815f5260205f209050919050565b5f8154610dc881610d7a565b610dd28186610cfd565b9450600182165f8114610dec5760018114610e0157610e33565b60ff1983168652811515820286019350610e33565b610e0a85610daa565b5f5b83811015610e2b57815481890152600182019150602081019050610e0c565b838801955050505b50505092915050565b5f610e478284610dbc565b915081905092915050565b7f50726f6475637420616c726561647920726567697374657265640000000000005f82015250565b5f610e86601a83610a18565b9150610e9182610e52565b602082019050919050565b5f6020820190508181035f830152610eb381610e7a565b9050919050565b5f6020601f8301049050919050565b5f82821b905092915050565b5f60088302610f047fffffffffffffffffffffffffffffffffffffffffffffffffffffffffffffffff82610ec9565b610f0e8683610ec9565b95508019841693508086168417925050509392505050565b5f819050919050565b5f610f49610f44610f3f8461082b565b610f26565b61082b565b9050919050565b5f819050919050565b610f6283610f2f565b610f76610f6e82610f50565b848454610ed5565b825550505050565b5f90565b610f8a610f7e565b610f95818484610f59565b505050565b5b81811015610fb857610fad5f82610f82565b600181019050610f9b565b5050565b601f821115610ffd57610fce81610daa565b610fd784610eba565b81016020851015610fe6578190505b610ffa610ff285610eba565b830182610f9a565b50505b505050565b5f82821c905092915050565b5f61101d5f1984600802611002565b1980831691505092915050565b5f611035838361100e565b9150826002028217905092915050565b61104e82610a0e565b67ffffffffffffffff81111561106757611066610876565b5b6110718254610d7a565b61107c828285610fbc565b5f60209050601f8311600181146110ad575f841561109b578287015190505b6110a5858261102a565b86555061110c565b601f1984166110bb86610daa565b5f5b828110156110e2578489015182556001820191506020850194506020810190506110bd565b868310156110ff57848901516110fb601f89168261100e565b8355505b6001600288020188555050505b50505050505056fea2646970667358221220f32d20bbe785a2a2f5ae5360b833534be159de287f6b353785434a3f7a6b5aba64736f6c63430008150033",
  "immutableReferences": {},
  "source": "// SPDX-License-Identifier: MIT\npragma solidity ^0.8.0;\n\ncontract ProductAuthentication {\n  // Owner of the contract\n  address public owner;\n\n  // Event to be emitted when a product is registered\n  event ProductRegistered(uint256 productId, address manufacturer, string name, string url, uint256 price);\n\n  // Event to be emitted when a product is verified\n  event ProductVerified(uint256 productId, bool isAuthentic);\n\n  // Struct to store product details\n  struct Product {\n    uint256 id;\n    address manufacturer;\n    string name;\n    string url;\n    uint256 price;\n    string qrCode;\n    bool exists;\n  }\n\n  // Mapping to store products by their ID\n  mapping(uint256 => Product) private products;\n\n  // Modifier to restrict access to the contract owner\n  modifier onlyOwner() {\n    require(msg.sender == owner, \"Only the owner can perform this action\");\n    _;\n  }\n\n  // Modifier to restrict access to the product manufacturer\n  modifier onlyManufacturer(uint256 productId) {\n    require(products[productId].manufacturer == msg.sender, \"Only the manufacturer can perform this action\");\n    _;\n  }\n\n  // Constructor to set the contract owner\n  constructor() {\n    owner = msg.sender;\n  }\n\n  // Function to register a new product\n  function registerProduct(\n    uint256 productId,\n    string memory name,\n    string memory url,\n    uint256 price,\n    string memory qrCode\n  ) public {\n    require(!products[productId].exists, \"Product already registered\");\n\n    products[productId] = Product({\n      id: productId,\n      manufacturer: msg.sender,\n      name: name,\n      url: url,\n      price: price,\n      qrCode: qrCode,\n      exists: true\n    });\n\n    emit ProductRegistered(productId, msg.sender, name, url, price);\n  }\n\n  // Function to verify the authenticity of a product\n  function verifyProduct(uint256 productId, string memory scannedQrCode) public view returns (bool, string memory, string memory, uint256) {\n    require(products[productId].exists, \"Product not registered\");\n\n    bool isAuthentic = keccak256(abi.encodePacked(products[productId].qrCode)) == keccak256(abi.encodePacked(scannedQrCode));\n    if (isAuthentic) {\n      return (true, products[productId].name, products[productId].url, products[productId].price);\n    } else {\n      return (false, \"\", \"\", 0);\n    }\n  }\n\n  // Function to get product details\n  function getProduct(uint256 productId) public view returns (uint256, address, string memory, string memory, uint256) {\n    require(products[productId].exists, \"Product not registered\");\n\n    Product memory product = products[productId];\n    return (product.id, product.manufacturer, product.name, product.url, product.price);\n  }\n}\n",
  "sourcePath": "C:\\Dev\\haux_huntr\\contracts\\Product.sol",
  "compiler": {
    "name": "solc",
    "version": "0.8.21+commit.d9974bed.Emscripten.clang"
  },
  "schemaVersion": "3.4.16",
  "updatedAt": "2024-06-11T21:59:15.803Z",
  "devdoc": {
    "kind": "dev",
    "methods": {},
    "version": 1
  },
  "userdoc": {
    "kind": "user",
    "methods": {},
    "version": 1
  }
}